:020000040000FA
:0400000007EF00F016
:100008005F8285ED14F0D3EF12F0DC0E036E2F0E35
:10001800046E800E056E94EC13F0000179517A118C
:10002800D8A419EF00F01BEF00F070EF00F0000EFD
:100038007A6F010E796FD00EBF25436E446AFF0EAA
:10004800442243C001F044C002F0000E046E0A0EC0
:10005800036EA3EC15F00001C0510126000E022228
:10006800D00E0124436EFF0E0220446ED00EC2252E
:10007800416E426AFF0E422241C001F042C002F0C6
:10008800000E046E0A0E036EA3EC15F00001C351B6
:100098000126000E0222D00E0124416EFF0E02201E
:1000A800426ED00EC5253F6E406AFF0E40223FC00B
:1000B80001F040C002F0000E046E0A0E036EA3ECBD
:1000C80015F00001C6510126000E0222D00E0124AF
:1000D8003F6EFF0E0220406E5A045B10D8A477EFE3
:1000E80000F079EF00F010EF01F0C30E0F6E41C081
:1000F80001F042C002F0000E046E0A0E036ED0EC4E
:1001080011F00150300FE2EC15F0C40E0F6E41C033
:1001180009F042C00AF0000E0C6E0A0E0B6E32ECAB
:1001280012F00950300FE2EC15F0C60E0F6E3FC00A
:1001380001F040C002F0000E046E0A0E036ED0EC0F
:1001480011F00150300FE2EC15F0C70E0F6E3FC0F2
:1001580009F040C00AF0000E0C6E0A0E0B6E32EC6D
:1001680012F00950300FE2EC15F000017751116ED2
:100178007851126E774B782B12BECEEF00F01250EA
:1001880007E1C80E115CD8B0CCEF00F0CEEF00F05C
:10019800F0EF00F0C00E0F6E43C001F044C002F053
:1001A800000E046E0A0E036ED0EC11F00150300FF1
:1001B800E2EC15F0C10E0F6E43C009F044C00AF01E
:1001C800000E0C6E0A0E0B6E32EC12F00950300F56
:1001D800E2EC15F050EF02F078BFFEEF00F0900E61
:1001E800775D010E7859D8B0FCEF00F0FEEF00F013
:1001F8000AEF01F0C00E0F6E200EE2EC15F0C10EF2
:100208000F6E200EE2EC15F050EF02F0000E786F42
:10021800000E776F50EF02F0020E5A185B10D8A448
:1002280018EF01F01AEF01F0B1EF01F0C00E0F6EF8
:1002380043C001F044C002F0000E046E0A0E036EC3
:10024800D0EC11F00150300FE2EC15F0C10E0F6E3A
:1002580043C009F044C00AF0000E0C6E0A0E0B6E83
:1002680032EC12F00950300FE2EC15F0C60E0F6EAA
:100278003FC001F040C002F0000E046E0A0E036E8B
:10028800D0EC11F00150300FE2EC15F0C70E0F6EF4
:100298003FC009F040C00AF0000E0C6E0A0E0B6E4B
:1002A80032EC12F00950300FE2EC15F000017551F4
:1002B800116E7651126E754B762B12BE6FEF01F0F0
:1002C800125007E1C80E115CD8B06DEF01F06FEF66
:1002D80001F091EF01F0C30E0F6E41C001F042C072
:1002E80002F0000E046E0A0E036ED0EC11F00150FD
:1002F800300FE2EC15F0C40E0F6E41C009F042C099
:100308000AF0000E0C6E0A0E0B6E32EC12F0095059
:10031800300FE2EC15F050EF02F076BF9FEF01F0DE
:10032800900E755D010E7659D8B09DEF01F09FEFE4
:1003380001F0ABEF01F0C30E0F6E200EE2EC15F0EA
:10034800C40E0F6E200EE2EC15F050EF02F0000E16
:10035800766F000E756F50EF02F0030E5A185B109F
:10036800D8A4B9EF01F0BBEF01F050EF02F0C00ED6
:100378000F6E43C001F044C002F0000E046E0A0E76
:10038800036ED0EC11F00150300FE2EC15F0C10E05
:100398000F6E43C009F044C00AF0000E0C6E0A0E3E
:1003A8000B6E32EC12F00950300FE2EC15F0C30E70
:1003B8000F6E41C001F042C002F0000E046E0A0E3A
:1003C800036ED0EC11F00150300FE2EC15F0C40EC2
:1003D8000F6E41C009F042C00AF0000E0C6E0A0E02
:1003E8000B6E32EC12F00950300FE2EC15F0000100
:1003F8007351116E7451126E734B742B12BE10EF41
:1004080002F0125007E1C80E115CD8B00EEF02F0EE
:1004180010EF02F032EF02F0C60E0F6E3FC001F08F
:1004280040C002F0000E046E0A0E036ED0EC11F00C
:100438000150300FE2EC15F0C70E0F6E3FC009F007
:1004480040C00AF0000E0C6E0A0E0B6E32EC12F071
:100458000950300FE2EC15F050EF02F074BF40EF96
:1004680002F0900E735D010E7459D8B03EEF02F0A1
:1004780040EF02F04CEF02F0C60E0F6E200EE2ECD9
:1004880015F0C70E0F6E200EE2EC15F050EF02F0DB
:10049800000E746F000E736F0B0E5918D8A457EF27
:1004A80002F059EF02F06BEF02F0040E5A185B10DD
:1004B800D8A461EF02F063EF02F069EF02F0000EDA
:1004C8005B6E010E5A6E6BEF02F05A4A5B2A0C0EF5
:1004D8005918D8A472EF02F074EF02F0DDEF02F0C1
:1004E8005A045B10D8A47BEF02F07DEF02F095EF81
:1004F80002F044BE8BEF02F0445007E1170E435C54
:10050800D8B089EF02F08BEF02F08FEF02F0434A88
:10051800442ADDEF02F0000E446E000E436EDDEF5C
:1005280002F0020E5A185B10D8A49DEF02F09FEF5C
:1005380002F0B7EF02F042BEADEF02F0425007E121
:100548003B0E415CD8B0ABEF02F0ADEF02F0B1EF7B
:1005580002F0414A422ADDEF02F0000E426E000E20
:10056800416EDDEF02F0030E5A185B10D8A4BFEFFE
:1005780002F0C1EF02F0D9EF02F040BECFEF02F077
:10058800405007E13B0E3F5CD8B0CDEF02F0CFEF13
:1005980002F0D3EF02F03F4A402ADDEF02F0000EEE
:1005A800406E000E3F6EDDEF02F0000E5B6E010E36
:1005B8005A6E0D0E5918D8A4E4EF02F0E6EF02F0D7
:1005C80043EF03F043C009F044C00AF0000E0C6E7C
:1005D8000A0E0B6E32EC12F009C011F00AC012F0CC
:1005E80043C001F044C002F0000E046E0A0E036E10
:1005F800D0EC11F00138F00B11100F6E020EC6ECA2
:1006080015F041C009F042C00AF0000E0C6E0A0E47
:100618000B6E32EC12F009C011F00AC012F041C0A2
:1006280001F042C002F0000E046E0A0E036ED0EC18
:1006380011F00138F00B11100F6E010EC6EC15F019
:100648003FC009F040C00AF0000E0C6E0A0E0B6E97
:1006580032EC12F009C011F00AC012F03FC001F0EC
:1006680040C002F0000E046E0A0E036ED0EC11F0CA
:100678000138F00B11100F6E000EC6EC15F00E0EBF
:100688005918D8A44AEF03F04CEF03F06AEF03F0CF
:10069800000E016E010E13EC15F0000E566E000EE2
:1006A800556E000E546E000E536E000E0001706FF2
:1006B800000E6F6F000E4A6E000E496E000E5D6EE2
:1006C800010E5C6E000E486E000E476E1200000EA2
:1006D8000001A66FC80EA56F3D503E10D8A477EF55
:1006E80003F079EF03F00AEF04F03F0E036E2F0ECC
:1006F800046E800E056E94EC13F03CBE8FEF03F091
:100708003C5007E1040E3B5CD8B08DEF03F08FEF4F
:1007180003F0F5EF03F03750116E3850126E374A78
:10072800382A12BEA3EF03F0125007E1C80E115C7D
:10073800D8B0A1EF03F0A3EF03F0ABEF03F03B5009
:10074800C50F0F6E5F0EE2EC15F0C5EF03F038BE73
:10075800B9EF03F0900E375C010E3858D8B0B7EFF8
:1007680003F0B9EF03F0C1EF03F03B50C50F0F6E74
:10077800200EE2EC15F0C5EF03F0000E386E000E07
:10078800376E0B0E5918D8A4CCEF03F0CEEF03F058
:10079800DEEF03F03B50C50F0F6E2A0EE2EC15F0AA
:1007A8003B50990FD96EDA6A300EDF6E3B4A3C2A0D
:1007B8000AEF04F00C0E5918D8A4E5EF03F0E7EFA0
:1007C80003F00AEF04F03B50C50F0F6E2A0EE2EC5F
:1007D80015F03B50990FD96EDA6A310EDF6EDAEFF9
:1007E80003F0040E3B183C10D8A4FDEF03F0FFEF14
:1007F80003F00AEF04F0000E3E6E010E3D6E000E8F
:10080800016E010E13EC15F00AEF04F03D043E10E2
:10081800D8A411EF04F013EF04F0A6EF04F04F0E84
:10082800036E2F0E046E800E056E94EC13F03ABE24
:1008380029EF04F03A5007E1040E395CD8B027EFED
:1008480004F029EF04F08FEF04F03750116E3850A0
:10085800126E374A382A12BE3DEF04F0125007E1F3
:10086800C80E115CD8B03BEF04F03DEF04F045EF43
:1008780004F03950C50F0F6E5F0EE2EC15F05FEF14
:1008880004F038BE53EF04F0900E375C010E385870
:10089800D8B051EF04F053EF04F05BEF04F0395097
:1008A800C50F0F6E200EE2EC15F05FEF04F0000E9E
:1008B800386E000E376E0B0E5918D8A466EF04F088
:1008C80068EF04F078EF04F03950C50F0F6E2A0E68
:1008D800E2EC15F03950940FD96EDA6A300EDF6EFB
:1008E800394A3A2A9CEF05F00C0E5918D8A47FEF24
:1008F80004F081EF04F0A4EF04F03950C50F0F6E37
:100908002A0EE2EC15F03950940FD96EDA6A310EDE
:10091800DF6E74EF04F0040E39183A10D8A497EF7C
:1009280004F099EF04F09CEF05F0000E3E6E020E05
:100938003D6E000E016E010E13EC15F09CEF05F0F4
:100948009CEF05F0020E3D183E10D8A4AEEF04F05F
:10095800B0EF04F09CEF05F0000E3C6E000E3B6E0D
:10096800000E3A6E000E396E000E00019D6F000EEB
:10097800986F990E016E940E026E2EEC14F00150D1
:100988000210D8A4CAEF04F0CCEF04F04BEF05F046
:10099800000E1C6E000E1B6E1B50990FD96EDA6A82
:1009A800DF50026E0001A551F3EC14F00001A54BD5
:1009B800A62B1B4A1C2A1CBEEBEF04F01C5009E1B5
:1009C800040E1B5CD8A0EBEF04F0EDEF04F0D0EFC1
:1009D80004F0B60E036E2F0E046E800E056E94ECB6
:1009E80013F0880E036E2F0E046EC00E056E94EC85
:1009F80013F0C80E016E990E026E8EEC15F0000E03
:100A08003E6E000E3D6E130E146E880E136E1EEFB2
:100A180005F0000E166EC80E156E1506D8A016063F
:100A2800152806E11628D8A41CEF05F01EEF05F0DE
:100A380011EF05F01306D8A01406132806E11428B0
:100A4800D8A429EF05F02BEF05F00DEF05F0000E07
:100A5800566E000E556E000E546E000E536E000E4C
:100A68000001706F000E6F6F000E4A6E000E496E27
:100A7800000E5D6E010E5C6E000E486E000E476E35
:100A8800000E016E010E13EC15F09CEF05F0AC0E94
:100A9800036E2F0E046E800E056E94EC13F07A0E22
:100AA800036E2F0E046EC00E056E94EC13F0130E39
:100AB800186E880E176E72EF05F0000E1A6EC80ECB
:100AC800196E1906D8A01A06192806E11A28D8A4FA
:100AD80070EF05F072EF05F065EF05F01706D8A086
:100AE8001806172806E11828D8A47DEF05F07FEF2F
:100AF80005F061EF05F0000E566E020E556E000E01
:100B0800546E000E536E000E4A6E000E496E000EB3
:100B18005D6E010E5C6E000E3E6E000E3D6E000EA8
:100B2800486E000E476E000E016E010E13EC15F0B4
:100B380012001250800B1F6E12501224266E11AE36
:100B4800A8EF05F0AAEF05F0ABEF05F026802650D8
:100B5800D8B4B1EF05F0B3EF05F0C8EF05F02628DB
:100B6800D8A4B9EF05F0BBEF05F0C3EF05F0000E10
:100B78000F6E000E106E000E116E000E126E118EAA
:100B8800000E126ED0EF05F0000E0F6E000E106E04
:100B9800000E116E000E126E1650800B1F1A1650A2
:100BA8001624276E15AEDBEF05F0DDEF05F0DEEF5E
:100BB80005F027802750D8B4E4EF05F0E6EF05F0FC
:100BC800FBEF05F02728D8A4ECEF05F0EEEF05F0D1
:100BD800F6EF05F0000E136E000E146E000E156E83
:100BE800000E166E158E000E166E03EF06F0000E40
:100BF800136E000E146E000E156E000E166E135056
:100C0800141015101610D8A40CEF06F00EEF06F00D
:100C180026EF06F0000E0F6E000E106E000E116E1D
:100C2800000E126E800E11127F0E12121F50121239
:100C38000FC00FF010C010F011C011F012C012F068
:100C480069EF07F02650D8A42CEF06F02EEF06F037
:100C580038EF06F0000E0F6E000E106E000E116ECB
:100C6800000E126E69EF07F0275026C017F0186AB9
:100C7800175E000E185A7F0E1724206E000E1820DB
:100C8800216E0FC01BF010C01CF011C01DF012C067
:100C98001EF0000E0F6E000E106E000E116E000E8C
:100CA800126E000E226E000E236E000E246E000ED1
:100CB800256E000E276E99EF06F02750D8B467EF1F
:100CC80006F069EF06F080EF06F0D8901B361C3668
:100CD8001D361E36D8900F3610361136123625AE10
:100CE80078EF06F07AEF06F07BEF06F00F80D890E9
:100CF800223623362436253613501B5C14501C58D4
:100D080015501D5816501E58D8A08DEF06F08FEFBD
:100D180006F098EF06F0258C13501B5E14501C5AF1
:100D280015501D5A16501E5A272A190E27649FEF70
:100D380006F0A1EF06F061EF06F01B501C101D1025
:100D48001E10D8B4AAEF06F0ACEF06F0C4EF06F018
:100D58002280C4EF06F0D8900F36103611361236BE
:100D680025AEB9EF06F0BBEF06F0BCEF06F00F803A
:100D7800D89022362336243625362006D8A02106D8
:100D880011AEC9EF06F0CBEF06F0AFEF06F0000E9C
:100D9800276E25AED2EF06F0D4EF06F0F8EF06F096
:100DA800FF0E2214176EFF0E2314186EFF0E241464
:100DB800196E7F0E25141A6E1750181019101A1074
:100DC800D8B4E9EF06F0EBEF06F0EFEF06F0010E0E
:100DD800276EF8EF06F00FA0F4EF06F0F6EF06F036
:100DE800F8EF06F0EBEF06F02750D8B4FEEF06F068
:100DF80000EF07F024EF07F0010E0F26000E102277
:100E08001122122212A00BEF07F00DEF07F024EFCA
:100E180007F00FC017F010C018F011C019F012C079
:100E28001AF01A341A3219321832173217C00FF062
:100E380018C010F019C011F01AC012F0204A212A67
:100E480021BE2FEF07F0215008E12028D8A02FEF6E
:100E580007F031EF07F03CEF07F0000E216E206835
:100E6800000E0F6E000E106E000E116E000E126E48
:100E780021BE49EF07F0215006E12004D8B047EF22
:100E880007F049EF07F057EF07F0000E216E000E4C
:100E9800206E000E0F6E000E106E000E116E000E0A
:100EA800126E000E1F6E20C026F026A05EEF07F01F
:100EB80060EF07F063EF07F0118E64EF07F0119E03
:100EC800D8902630126E1AEF06F01200000E1C6E33
:100ED800000E1B6E000181518211D8A476EF07F035
:100EE80078EF07F080EF07F0000E826F010E816F38
:100EF80034EF09F034EF09F081058211D8A487EFA7
:100F080007F089EF07F034EF09F034BE97EF07F0E8
:100F1800345007E1040E335CD8B095EF07F097EF33
:100F280007F001EF08F01D0E036E2F0E046E810E00
:100F3800056E94EC13F01B50116E1C50126E1B4A78
:100F48001C2A12BEB3EF07F0125007E1C80E115C5D
:100F5800D8B0B1EF07F0B3EF07F0BBEF07F03350AD
:100F6800C50F0F6E5F0EE2EC15F0D1EF07F01CBE57
:100F7800C9EF07F0900E1B5C010E1C58D8B0C7EFE4
:100F880007F0C9EF07F0D1EF07F03350C50F0F6E28
:100F9800200EE2EC15F0D1EF07F00B0E5918D8A48B
:100FA800D8EF07F0DAEF07F0EAEF07F03350C50F94
:100FB8000F6E2A0EE2EC15F033509E0FD96EDA6AE6
:100FC800300EDF6E334A342A01EF08F00C0E591840
:100FD800D8A4F1EF07F0F3EF07F001EF08F0335072
:100FE800C50F0F6E2A0EE2EC15F033509E0FD96E26
:100FF800DA6A310EDF6EE6EF07F0040E33183410AC
:10100800D8A409EF08F00BEF08F034EF09F0000E50
:10101800346E000E336E000E0001A26FC80E016E12
:101028009E0E026E2EEC14F001500210D8A41FEF91
:1010380008F021EF08F06BEF08F0000E016E010ECA
:1010480013EC15F0E50E036E2F0E046E810E056E7F
:1010580094EC13F05E0E036E2F0E046EC20E056E36
:1010680094EC13F0130E146E880E136E4DEF08F007
:10107800000E166EC80E156E1506D8A01606152891
:1010880006E11628D8A44BEF08F04DEF08F040EF22
:1010980008F01306D8A01406132806E11428D8A4CB
:1010A80058EF08F05AEF08F03CEF08F05968000EC6
:1010B800566E020E556E000E016E010E13EC15F001
:1010C800000E0001A46F020EA36F34EF09F0000EAA
:1010D800016E010E13EC15F0CA0E036E2F0E046E8E
:1010E800810E056E94EC13F0D30E036E2F0E046E72
:1010F800C20E056E94EC13F00001A4BF86EF08F051
:1011080088EF08F092EF08F0CB0E0F6EA351300F66
:10111800E2EC15F00001A307D8A0A407130E186E7F
:10112800880E176EA9EF08F0000E1A6EC80E196E19
:101138001906D8A01A06192806E11A28D8A4A7EF74
:1011480008F0A9EF08F09CEF08F01706D8A01806D9
:10115800172806E11828D8A4B4EF08F0B6EF08F06D
:1011680098EF08F0000E016E010E13EC15F0000167
:10117800A4BFC3EF08F0C1EF08F07EEF07F0000E40
:10118800016E010E13EC15F0000E526E780E516EC2
:1011980020EF09F02E0E036E2F0E046E800E056EE2
:1011A80094EC13F0C00E036E2F0E046EC00E056E85
:1011B80094EC13F052BEE3EF08F0E5EF08F020EFEF
:1011C80009F051C001F052C002F0000E046E640E26
:1011D800036ED0EC11F00150300F0001CD6F000EFE
:1011E800046E0A0E036E51C001F052C002F0D0EC3A
:1011F80011F001C009F002C00AF0000E0C6E0A0ED0
:101208000B6E32EC12F00950300F0001CE6F51C056
:1012180009F052C00AF0000E0C6E0A0E0B6E32EC8A
:1012280012F00950300F0001CF6FCD0E036E046A23
:10123800CA0E056E94EC13F052BE27EF09F025EFA5
:1012480009F0CEEF08F0000E016E010E13EC15F058
:10125800000E566E000E556E000E526E780E516ED0
:101268001200ED0E036E2F0E046E800E056E94ECC8
:1012780013F04D504E10D8A444EF09F046EF09F092
:1012880088EF09F0A10E036E2F0E046EC00E056ED6
:1012980094EC13F0130E0A6E880E096E65EF09F0D0
:1012A800000E0C6EC80E0B6E0B06D8A00C060B2891
:1012B80006E10C28D8A463EF09F065EF09F058EFB0
:1012C80009F00906D8A00A06092806E10A28D8A4C0
:1012D80070EF09F072EF09F054EF09F0000E566E46
:1012E800020E556E000E546E000E536E000E4A6EBE
:1012F800000E496E000E5D6E010E5C6E000E486EAB
:10130800000E476E9AEF0AF046BE95EF09F0465078
:1013180006E14504D8B093EF09F095EF09F099EF8D
:1013280009F0000E466E000E456E0B0E5918D8A433
:10133800A0EF09F0A2EF09F0C3EF09F04CBEADEF42
:1013480009F04C5008E14B04D8A0ADEF09F0AFEF1D
:1013580009F0F7EF09F045504610D8B4B6EF09F098
:10136800B8EF09F0BEEF09F0F60E4524456EFF0E02
:101378004620466E4B06D8A04C06F7EF09F00C0E37
:101388005918D8A4CAEF09F0CCEF09F0F7EF09F023
:10139800FF0E4D24066EFF0E4E20076E06504B5C66
:1013A8004C50800A086E0750800A0858D8B0DFEF02
:1013B80009F0E1EF09F0F7EF09F00A0E4524456E50
:1013C800000E4620466E630E45184610D8A4EFEF6F
:1013D80009F0F1EF09F0F5EF09F0000E466E000E86
:1013E800456E4B4A4C2A45C07DF046C07EF0000E43
:1013F8000E6E000E0D6E0D500E10D8A406EF0AF0FA
:1014080008EF0AF011EF0AF00D50830FD96EDA6A6F
:101418004B50300FDF6E5EEF0AF00D040E10D8B49B
:1014280018EF0AF01AEF0AF02EEF0AF00A0E0D185C
:101438000E10D8B422EF0AF024EF0AF02EEF0AF0CB
:101448000D0E0D180E10D8A42CEF0AF02EEF0AF08E
:1014580036EF0AF00D50830FD96EDA6A200EDF6E70
:101468005EEF0AF0040E0D180E10D8B43EEF0AF025
:1014780040EF0AF04AEF0AF0070E0D180E10D8A434
:1014880048EF0AF04AEF0AF052EF0AF00D50830FC6
:10149800D96EDA6A3A0EDF6E5EEF0AF00D50830FEE
:1014A800D96EDA6A00017D5179EC15F0DF6E000122
:1014B8007D4B7E2B0D4A0E2A0EBE6CEF0AF00E50A5
:1014C80009E1100E0D5CD8A06CEF0AF06EEF0AF07F
:1014D800FFEF09F0000E0001936F830E036E046A9C
:1014E800C00E056E94EC13F00E0E5918D8A47FEFB9
:1014F8000AF081EF0AF09AEF0AF0000E016E010E71
:1015080013EC15F0000E566E020E556E000E546E5A
:10151800000E536E000E4A6E000E496E000E5D6E90
:10152800010E5C6E000E486E000E476E1200F40E3F
:10153800036E2F0E046E810E056E94EC13F0FC0EF4
:10154800036E2F0E046E8A0E056E94EC13F0F90EDE
:10155800036E2F0E046E8D0E056E94EC13F0BF0E05
:10156800036E046AC10E056E94EC13F000016F510E
:101578007011D8A4C2EF0AF0C4EF0AF0CBEF0AF05A
:10158800A70E036E046ACA0E056E94EC13F04EBEE5
:10159800D7EF0AF04E5009E10B0E4D5CD8A0D7EFFB
:1015A8000AF0D9EF0AF0DDEF0AF0000E4E6E0A0ECF
:1015B8004D6E5904D8A4E3EF0AF0E5EF0AF02FEFD7
:1015C8000BF0000E0001706F010E6F6F030E7119A2
:1015D8007211D8A4F2EF0AF0F4EF0AF0FDEF0AF066
:1015E800000E366E010E356E7107D8A072071DEF1A
:1015F8000BF036BE0BEF0BF0365007E1060E355CEC
:10160800D8B009EF0BF00BEF0BF00FEF0BF0354AEA
:10161800362A1DEF0BF0060E35183610D8A417EF32
:101628000BF019EF0BF01DEF0BF0000E366E060EE7
:10163800356E3550030DF350A70F326E32C003F0EC
:10164800046ACA0E056E94EC13F052EC11F04D4A80
:101658004E2A6CEF0BF0020E5918D8A436EF0BF097
:1016680038EF0BF06CEF0BF0030E000171197211DB
:10167800D8A441EF0BF043EF0BF045EF0BF0F4EF7C
:101688000AF036BE51EF0BF0365009E1020E355C18
:10169800D8A051EF0BF053EF0BF066EF0BF036BE0E
:1016A80061EF0BF0365007E1070E355CD8B05FEFFD
:1016B8000BF061EF0BF066EF0BF03506D8A036069D
:1016C8001DEF0BF0000E366E010E356E1DEF0BF0A0
:1016D800030E5918D8A473EF0BF075EF0BF08EEFCB
:1016E8000BF0000E366E070E356E3550030DF350B5
:1016F800A70F326E32C003F0046ACA0E056E94EC6E
:1017080013F052EC11F04D4A4E2A000E0001726F90
:10171800030E716F040ED0EC14F001C06DF002C01E
:101728006EF0000E136E000E146E240E156E410E30
:10173800166E6DC001F06EC002F0000E02BEFF0E04
:10174800036E046E010E71EC0FF001C00FF002C0C1
:1017580010F003C011F004C012F09DEC05F00FC0AA
:1017680028F010C029F011C02AF012C02BF0CFECDD
:1017780010F028C06DF029C06EF06DC001F06EC089
:1017880002F0000E046E0A0E036ED0EC11F0015048
:10179800300F0001D16F6DC009F06EC00AF0000E65
:1017A8000C6E0A0E0B6E32EC12F00950300F00016D
:1017B800D26FD10E036E046ACD0E056E94EC13F051
:1017C8000B0E5918D8A4EBEF0BF0EDEF0BF0F7EF79
:1017D8000BF0000E566E010E556E000E016E010ED6
:1017E80013EC15F059681200CAEC13F016EC13F05C
:1017F80052EC11F04D4A4E2A16EC13F0010E59EC3A
:1018080013F0596E30EF0CF0000E59EC13F0596ECE
:10181800010E00016427000E65236623672367BF56
:1018280022EF0CF0675166110BE1510E645DC30E97
:101838006559D8A022EF0CF024EF0CF030EF0CF033
:101848000D0E596E000E646F000E656F000E666F08
:10185800000E676F39EF0CF00B0E5918D8B437EF3C
:101868000CF039EF0CF008EF0CF0000167BF4BEFFC
:101878000CF06751661109E1500E645DC30E65599D
:10188800D8B049EF0CF04BEF0CF08FEF0CF067BFBE
:1018980059EF0CF067516611651109E1330E645D6B
:1018A800D8A059EF0CF05BEF0CF08FEF0CF00B0E9B
:1018B800596E000E646F000E656F000E666F000EA5
:1018C800676F8FEF0CF0000E59EC13F0596E010E94
:1018D80000016027000E61236223632363BF81EF49
:1018E8000CF0635162110BE1510E605DC30E61593A
:1018F800D8A081EF0CF083EF0CF08FEF0CF00E0EF8
:10190800596E000E606F000E616F000E626F000E60
:10191800636F98EF0CF00C0E5918D8B496EF0CF0D2
:1019280098EF0CF067EF0CF063BFA9EF0CF0635170
:10193800621109E1500E605DC30E6159D8B0A7EF7E
:101948000CF0A9EF0CF0C3EF0CF063BFB7EF0CF08D
:1019580063516211611109E1330E605DD8A0B7EFE0
:101968000CF0B9EF0CF0C3EF0CF00C0E596E000E32
:10197800606F000E616F000E626F000E636F55504E
:101988005610D8A4CAEF0CF0CCEF0CF0CEEF0CF048
:101998009BEC0AF055045610D8A4D5EF0CF0D7EFFD
:1019A8000CF0D9EF0CF06AEC07F0020E551856103F
:1019B800D8A4E1EF0CF0E3EF0CF0E5EF0CF066ECE7
:1019C8000EF0030E55185610D8A4EDEF0CF0EFEFFB
:1019D8000CF000EF0CF053505410D8A4F6EF0CF0B4
:1019E800F8EF0CF0FCEF0CF035EC09F000EF0CF020
:1019F80053045410D8A403EF0DF005EF0DF009EFD0
:101A08000DF037EC0DF000EF0CF0020E53185410E7
:101A1800D8A411EF0DF013EF0DF017EF0DF08AECCD
:101A280012F000EF0CF0030E53185410D8A41FEF57
:101A38000DF021EF0DF025EF0DF009EC00F000EFAF
:101A48000CF0040E53185410D8A42DEF0DF02FEFFE
:101A58000DF033EF0DF06BEC03F000EF0CF000EF3E
:101A68000CF007EF00F04D504E10D8A43EEF0DF0EB
:101A780040EF0DF088EF0DF0A10E036E2F0E046EEF
:101A8800800E056E94EC13F0A10E026E2F0E036EFD
:101A9800FFEC13F0000E566E020E556E000E546EDB
:101AA800000E536E000E4A6E000E496E000E5D6EFB
:101AB800010E5C6E000E486E000E476E270E086E13
:101AC800100E076E79EF0DF0000E0A6EC80E096E43
:101AD8000906D8A00A06092806E10A28D8A477EF3B
:101AE8000DF079EF0DF06CEF0DF00706D8A00806A1
:101AF800072806E10828D8A484EF0DF086EF0DF03A
:101B080068EF0DF065EF0EF0000E00017E6F000E1D
:101B18007D6F000E106E000E0F6E16EF0EF0000EA9
:101B2800126E000E116E11501210D8A49EEF0DF017
:101B3800A0EF0DF0A9EF0DF01150830FD96EDA6AFE
:101B48000F50300FDF6EF6EF0DF011041210D8B4FD
:101B5800B0EF0DF0B2EF0DF0C6EF0DF00A0E111850
:101B68001210D8B4BAEF0DF0BCEF0DF0C6EF0DF0BF
:101B78000D0E11181210D8A4C4EF0DF0C6EF0DF019
:101B8800CEEF0DF01150830FD96EDA6A200EDF6E9A
:101B9800F6EF0DF0040E11181210D8B4D6EF0DF0B0
:101BA800D8EF0DF0E2EF0DF0070E11181210D8A4BF
:101BB800E0EF0DF0E2EF0DF0EAEF0DF01150830FBA
:101BC800D96EDA6A3A0EDF6EF6EF0DF01150830F18
:101BD800D96EDA6A00017D5179EC15F0DF6E0001EB
:101BE8007D4B7E2B114A122A12BE04EF0EF01250C2
:101BF80009E1100E115CD8A004EF0EF006EF0EF00C
:101C080097EF0DF0000E0001936F830E026E036ACA
:101C1800FFEC13F00A0EF9EC15F00D0EF9EC15F0C7
:101C28000F4A102A4D500F5C1050800A066E4E5015
:101C3800800A0658D8A023EF0EF025EF0EF093EF98
:101C48000DF06C0E036E2F0E046E800E056E94EC74
:101C580013F0270E0C6E100E0B6E44EF0EF0000EF4
:101C68000E6EC80E0D6E0D06D8A00E060D2806E1E4
:101C78000E28D8A442EF0EF044EF0EF037EF0EF026
:101C88000B06D8A00C060B2806E10C28D8A44FEFA9
:101C98000EF051EF0EF033EF0EF0000E566E020EFE
:101CA800556E000E546E000E536E000E4A6E000EF6
:101CB800496E000E5D6E010E5C6E000E486E000EE1
:101CC800476E12000C0E5918D8A46DEF0EF06FEF86
:101CD8000EF0AFEF0EF05DBE7DEF0EF05D5007E148
:101CE800050E5C5CD8B07BEF0EF07DEF0EF0AFEF29
:101CF8000EF047044810D8A484EF0EF086EF0EF0DB
:101D08009EEF0EF05DBE94EF0EF05D5007E1040EFD
:101D18005C5CD8B092EF0EF094EF0EF0E8EF0EF0A6
:101D28005CC049F05DC04AF05C4A5D2A534A542AB7
:101D3800E8EF0EF047504810D8A4A5EF0EF0A7EF33
:101D48000EF0E8EF0EF0000E486E010E476E534A93
:101D5800542AE8EF0EF00B0E5918D8A4B6EF0EF07F
:101D6800B8EF0EF0E8EF0EF04ABEBDEF0EF0BFEF91
:101D78000EF0E8EF0EF047044810D8A4C6EF0EF0B6
:101D8800C8EF0EF0D1EF0EF0000E486E000E476E51
:101D98005306D8A05406E8EF0EF04ABEDCEF0EF06A
:101DA8004A5008E14904D8A0DCEF0EF0DEEF0EF04F
:101DB800E8EF0EF049C05CF04AC05DF04906D8A0D3
:101DC8004A065306D8A054060D0E5918D8A4EFEFAA
:101DD8000EF0F1EF0EF0FCEF0EF0000E566E030E53
:101DE800556E000E016E010E13EC15F070EF0FF03A
:101DF80047504810D8A403EF0FF005EF0FF011EF8C
:101E08000FF0800E0F6E2A0EE2EC15F0C00E0F6E6A
:101E1800200EE2EC15F01BEF0FF0800E0F6E200E77
:101E2800E2EC15F0C00E0F6E2A0EE2EC15F049C078
:101E380011F04AC012F0113A123AF00E121611506F
:101E48000F0B1212F00E1116000E1124036E010E64
:101E58001220046E810E056E94EC13F05CC011F034
:101E68005DC012F0113A123AF00E121611500F0B13
:101E78001212F00E1116000E1124036E010E12201C
:101E8800046EC10E056E94EC13F00E0E5918D8A40A
:101E980050EF0FF052EF0FF070EF0FF0000E016EE1
:101EA800010E13EC15F0000E566E000E556E000E66
:101EB800546E000E536E000E0001706F000E6F6FAF
:101EC800000E4A6E000E496E000E5D6E010E5C6ECD
:101ED800000E486E000E476E1200096E0950D8B405
:101EE80078EF0FF07AEF0FF09CEF0FF004BE81EF60
:101EF8000FF07FEF0FF09CEF0FF001C005F002C06C
:101F080006F003C007F004C008F0051E061E071EF1
:101F1800081E052A000E06220722082205C00BF01B
:101F280006C00CF007C00DF008C00EF0A4EF0FF0CB
:101F380001C00BF002C00CF003C00DF004C00EF09D
:101F48000150021003100410D8A4ADEF0FF0AFEF4A
:101F58000FF0B9EF0FF0000E016E000E026E000ECA
:101F6800036E000E046E4AEF10F0960E0A6EC3EF71
:101F78000FF00A2AD8900E320D320C320B32000EB6
:101F88000B14056E000E0C14066E000E0D14076E71
:101F9800FE0E0E14086E0550061007100810D8A47F
:101FA800D8EF0FF0DAEF0FF0BDEF0FF0E8EF0FF01A
:101FB8000A2A010E0B26000E0C220D220E22D890A2
:101FC8000E320D320C320B32000E0B14056E000E61
:101FD8000C14066E000E0D14076EFF0E0E14086E1C
:101FE8000550061007100810D8A4FDEF0FF0FFEFFA
:101FF8000FF0DCEF0FF007EF10F00A06D8900B3661
:102008000C360D360E360DBE0CEF10F00EEF10F03C
:1020180016EF10F0020E0A6014EF10F016EF10F031
:1020280001EF10F00AB01BEF10F01DEF10F01EEFDB
:1020380010F00D9ED8900A320AC005F0066A076AA9
:10204800086A05C008F0076A066A056A05500B1297
:1020580006500C1207500D1208500E120950D8B431
:1020680038EF10F03AEF10F042EF10F004BE41EFF5
:1020780010F03FEF10F042EF10F00E8E0BC001F0A1
:102088000CC002F00DC003F00EC004F01200819ADB
:10209800818C818E81B253EF10F055EF10F058EF1C
:1020A80010F0010ECEEF10F081B45DEF10F05FEF8D
:1020B80010F062EF10F0040ECEEF10F081B667EF6B
:1020C80010F069EF10F06CEF10F0070ECEEF10F083
:1020D80081B871EF10F073EF10F076EF10F00A0E80
:1020E800CEEF10F0818A819C818E81B27EEF10F054
:1020F80080EF10F083EF10F0020ECEEF10F081B4F5
:1021080088EF10F08AEF10F08DEF10F0050ECEEF8B
:1021180010F081B692EF10F094EF10F097EF10F0F6
:10212800080ECEEF10F081B89CEF10F09EEF10F083
:10213800A1EF10F00B0ECEEF10F0818A818C819EFA
:10214800819E81B2AAEF10F0ACEF10F0AFEF10F063
:10215800030ECEEF10F081B4B4EF10F0B6EF10F02C
:10216800B9EF10F0060ECEEF10F081B6BEEF10F00A
:10217800C0EF10F0C3EF10F0090ECEEF10F081B8E9
:10218800C8EF10F0CAEF10F0CDEF10F00C0ECEEF44
:1021980010F0FF0E12002A342B34316E3150D8A4BF
:1021A800D8EF10F0DAEF10F0E4EF10F0000E286E20
:1021B800000E296E000E2A6E000E2B6E51EF11F0E4
:1021C80028C02CF029C02DF02AC02EF02BC02FF0EB
:1021D800200EF4EF10F0D8902F322E322D322C3200
:1021E800E82EEFEF10F02C50306E2A8EFF0E2816D6
:1021F800FF0E2916FF0E2A16000E2B16960E315EBC
:1022080031BE0BEF11F009EF11F021EF11F0315051
:10221800800A970FD8B013EF11F015EF11F017EFF0
:1022280011F0DAEF10F0D8902B322A322932283206
:10223800313E17EF11F039EF11F01F0E316427EF1F
:1022480011F029EF11F031EF11F0DAEF10F0D8901A
:10225800283629362A362B3631063150D8A437EF9E
:1022680011F039EF11F02BEF11F03050D8B43FEFE7
:1022780011F041EF11F049EF11F02B1E2A1E291E13
:10228800286C000E29222A222B2228C028F029C0D7
:1022980029F02AC02AF02BC02BF012004EBE5EEFA8
:1022A80011F04E5009E1090E4D5CD8A05EEF11F017
:1022B80060EF11F064EF11F0000E4E6E090E4D6ED6
:1022C800630E4F185010D8A46CEF11F06EEF11F098
:1022D80072EF11F0000E506E000E4F6E000E076E7A
:1022E800000E066E020E06180710D8B47EEF11F025
:1022F80080EF11F097EF11F0050E06180710D8A41B
:1023080088EF11F08AEF11F08CEF11F097EF11F0D0
:102318000650BF0FD96EDA6ADF50026E4F50F3ECE9
:1023280014F04F4A502A064A072A07BEA5EF11F0B3
:10233800075009E1080E065CD8A0A5EF11F0A7EF39
:1023480011F076EF11F03550030DF350A70FD96E49
:10235800DA6ADF50026E4F50F3EC14F04F4A502AFD
:102368003550030DF350A80FD96EDA6ADF50026EAC
:102378004F50F3EC14F04F4A502AD1C002F04F509E
:10238800F3EC14F04F4A502AD2C002F04F50F3EC4D
:1023980014F04F4A502A1200000E066E04BED9EF00
:1023A80011F0D7EF11F0DFEF11F0036C041ED8B075
:1023B800042A010E066E02BEE6EF11F0E4EF11F0FA
:1023C800ECEF11F0016C021ED8B0022A010E061AB9
:1023D800000E086E000E076E03500410D8B4F7EF15
:1023E80011F0F9EF11F021EF12F0010E056E01EF77
:1023F80012F0D89003360436052A04AE06EF12F020
:1024080008EF12F0FDEF11F0D890073608360350A8
:10241800015C04500258D8A014EF12F016EF12F025
:102428001BEF12F00350015E0450025A0780D89047
:1024380004320332052E08EF12F00650D8B427EF05
:1024480012F029EF12F02DEF12F0076C081ED8B029
:10245800082A07C001F008C002F01200000E0E6E34
:102468000ABE3BEF12F039EF12F041EF12F0096C9F
:102478000A1ED8B00A2A010E0E6E0CBE48EF12F0E2
:1024880046EF12F04CEF12F00B6C0C1ED8B00C2A71
:102498000B500C10D8B453EF12F055EF12F079EF3F
:1024A80012F0010E0D6E5DEF12F0D8900B360C365F
:1024B8000D2A0CAE62EF12F064EF12F059EF12F031
:1024C8000B50095C0C500A58D8A06DEF12F06FEF52
:1024D80012F073EF12F00B50095E0C500A5AD890A4
:1024E8000C320B320D2E64EF12F00E50D8B47FEF81
:1024F80012F081EF12F085EF12F0096C0A1ED8B0C5
:102508000A2A09C009F00AC00AF01200950E036EE3
:102518002F0E046E800E056E94EC13F0000E506EB4
:10252800000E4F6E000E4E6E000E4D6E270E076E9B
:10253800100E066EB1EF12F0000E096EC80E086E8E
:102548000806D8A00906082806E10928D8A4AFEF8C
:1025580012F0B1EF12F0A4EF12F00606D8A00706A9
:10256800062806E10728D8A4BCEF12F0BEEF12F047
:10257800A0EF12F0000E566E020E556E000E546E4D
:10258800000E536E000E4A6E000E496E000E5D6E10
:10259800010E5C6E000E486E000E476E1200BA0EF9
:1025A800F66E280EF76E000EF86E01EE00F010EED3
:1025B80050F00900F5CFEEFFE550E150FAE1960E34
:1025C800F66E2A0EF76E000EF86E00EEA3F010EE0F
:1025D80031F00900F5CFEEFFE550E150FAE17C0E4D
:1025E800F66E2C0EF76E000EF86E00EE5AF010EE36
:1025F80005F00900F5CFEEFFE550E150FAE100EEF5
:1026080060F0430EEE6AE806FDE100EE33F0270EB7
:10261800EE6AE806FDE15F905F92000EF86E000139
:10262800F8EF0BF0020E64EC15F00001686F010E74
:1026380064EC15F00001696F000E64EC15F0000100
:102648006A6F68AD2AEF13F02CEF13F037EF13F031
:1026580068390F0B010B300FBF6F68510F0B300F2C
:10266800C06F40EF13F068390F0B030B300FBF6FCB
:1026780068510F0B300FC06F3A0EC16F69390F0BDD
:102688000F0B300FC26F69510F0B300FC36F3A0E2B
:10269800C46F6A390F0B0F0B300FC56F6A510F0BE0
:1026A800300FC66F000EC76F1200016E0104D8A468
:1026B80060EF13F062EF13F086EF13F04BEC10F0BD
:1026C800576E5728D8B46BEF13F06DEF13F07AEF0D
:1026D80013F05E50D8B473EF13F075EF13F07AEF80
:1026E80013F0000E5E6E575093EF13F05728D8A4DE
:1026F80080EF13F082EF13F092EF13F0010E5E6E8D
:1027080092EF13F00150D8A48CEF13F08EEF13F072
:1027180092EF13F04BEC10F093EF13F0FF0E120052
:10272800000E016E055013EC15F0B1EF13F0010E19
:10273800016E03C0F6FF04C0F7FFF86A050EF764E0
:1027480003D00800F55005D0F6CFE1FFF7CFE2FF40
:10275800E75013EC15F0034A042A03C0F6FF04C03F
:10276800F7FFF86A050EF76403D00800F55005D0A6
:10277800F6CFE1FFF7CFE2FFE7500009D8A4C7EF93
:1027880013F0C9EF13F09BEF13F012000F0EC16E98
:102798000DEC16F0B6EC15F030EC15F0D5EC15F0A4
:1027A800EEEC15F0ACEC14F004EC16F0000E0001A1
:1027B800A66FC80EA56F000E136E000E126E125093
:1027C800C80FD96EDA6AA55179EC15F0DF6E0001F1
:1027D800A54BA62B124A132A13BEFCEF13F0135075
:1027E80009E1040E125CD8A0FCEF13F0FEEF13F021
:1027F800E3EF13F0120015EF14F002C0F6FF03C068
:10280800F7FFF86A050EF76403D00800F55005D005
:10281800F6CFE1FFF7CFE2FFE750F9EC15F0024AF7
:10282800032A02C0F6FF03C0F7FFF86A050EF76433
:1028380003D00800F55005D0F6CFE1FFF7CFE2FF4F
:10284800E7500009D8A42BEF14F02DEF14F001EF96
:1028580014F0120032EF14F0012A022A0250D96E45
:10286800DA6A0150E16EE26ADE50E618D8A43FEF5A
:1028780014F041EF14F04CEF14F00150D96EDA6AFD
:10288800DF50D8A44AEF14F04CEF14F030EF14F0F6
:102898000150D96EDA6ADF50036E0250D96EDA6AD7
:1028A800DF50046E0450035C016E026AD8A0020671
:1028B800120056696577206C6F6720202020202041
:1028C8000000446F776E6C6F6164206C6F67202026
:1028D8000000436C656172206C6F67202020202007
:1028E80000005365742074696D6520202020202025
:1028F80000004368616E6765207061737320202053
:1029080000000600F2A48BEF14F08DEF14F0AAEF8C
:1029180014F0080ED624D66E000ED720D76E00010C
:102928006B4B6C2B210E6B1907E14E0E6C19D8A45A
:10293800A0EF14F0A2EF14F0A9EF14F0000E6C6FE2
:10294800000E6B6F5106D8A05206F2945F921100E8
:10295800000E64EC15F0116E115080090F6E000E18
:10296800C6EC15F0020E64EC15F0116E115040091A
:102978000F6E020EC6EC15F0930E0F6E070EC6EC26
:1029880015F0000E64EC15F0116E11507F0B0F6EF0
:10299800000EC6EC15F01200076E07C003F0D890C1
:1029A8000336D8900336C250C30B0310C26EC282DE
:1029B800C2B2E1EF14F0E3EF14F0DCEF14F0C3500F
:1029C800C4CF03F0046A03C004F0036A0310056E61
:1029D8000450066E05C001F006C002F01200056E34
:1029E80037EC16F0A00E25EC16F0055025EC16F085
:1029F800025025EC16F033EC16F00B0E046EB80EF0
:102A0800036E0306D8A00406032806E10428D8A408
:102A180010EF15F012EF15F005EF15F01200026E29
:102A280001B019EF15F01CEF15F082821DEF15F0BB
:102A3800829202C083FF82848294958E82808292E1
:102A48008284829483BE2BEF15F02DEF15F024EFCE
:102A580015F08290959E1200000E956E9450F80B1A
:102A6800946E8290000E016E020E13EC15F0000EAB
:102A7800016E380E13EC15F0000E016E0C0E13ECFF
:102A880015F0000E016E010E13EC15F01200020095
:102A9800C8004F4E00474E004752004731004732AA
:102AA80000473300473400434F0030303A30303A63
:0F2AB800303000300000000030000000303000EF
:102AC800026E37EC16F0D00E25EC16F0025025EC0D
:102AD80016F02BEC16F0D10E25EC16F01FEC16F0C4
:102AE800036E33EC16F003501200026E37EC16F04A
:102AF800A00E25EC16F0025025EC16F02BEC16F083
:102B0800A10E25EC16F01FEC16F0036E33EC16F050
:102B18000350120001C003F0022A0204D96EDA6AD7
:102B2800032A0304E16EE26ADFCFE7FFE750D8A487
:102B3800A0EF15F0A2EF15F090EF15F0120001507C
:102B48000302F3CF05F0F4CF06F001500402F3506E
:102B5800062602500302F350062605C001F006C0FF
:102B680002F01200C08EC08AC098C096C090C08281
:102B7800C094C292C19AC198000EC46E000EC36E72
:102B8800C2801200106E37EC16F0D00E25EC16F04D
:102B9800105025EC16F00F5025EC16F033EC16F01B
:102BA8001200F28CF28ED58CD59AD58ED586000E71
:102BB800D76E060ED66EF294F28A1200106E000ED0
:102BC800016E0F5013EC15F0010E016E105013EC4E
:102BD80015F0120094869488280EC66E310EC86EC1
:102BE800C79CC78E9E96A1961200016E9EA8FFEF05
:102BF80015F001EF16F0FAEF15F001C0ADFF120065
:102C0800948E949CAC84AB8EAB88810EAF6E9D8AFB
:102C180012000F0EC16E1E0E936EF19E8150E009D8
:102C2800816E12009EA61BEF16F01DEF16F016EF30
:102C380016F09E9612002FEC16F03BEC16F0C950D9
:102C48001200016E01C0C9FF16EC16F01200C58211
:102C580016EC16F01200C58616EC16F01200C584A4
:102C680016EC16F01200C58016EC16F01200C58A94
:092C7800C58812000100010001F1
:102F1C0000456E7465722050617373776F72642014
:102F2C003A00596F75206861766520626C6F636B2F
:102F3C00656400456E746572204E65772050617330
:102F4C00733A00526520456E74657220506173733C
:102F5C003A00436F72726563742070617373210061
:102F6C00446F776E6C6F6164696E672E2E004361DF
:102F7C006E6E6F74206368616E67650050415353C9
:102F8C00204368616E67656400436C656172696EAD
:102F9C00672E2E2E004C6F6720456D7074792100C2
:102FAC004641494C55524520210053554343455306
:102FBC00532021007761697420666F723A00464194
:102FCC00494C5552452100417474656D70743A003A
:102FDC004852204D4E2053430053554343455353C1
:102FEC00004C4F4753203A0054494D450053500074
:042FFC004556000036
:020000040020DA
:08000000FFFFFFFFFFFFFFFF00
:020000040030CA
:0E000000FF071F1FFF8285FF0FC00FE00F409C
:00000001FF
